:10000000AAC00000C3C00000C1C00000BFC0000003
:10001000BDC00000BBC00000B9C00000B7C00000F8
:10002000B5C00000B3C00000B1C000003BC5000077
:10003000ADC00000ABC00000A9C00000A7C0000018
:10004000A5C00000A3C00000A1C000009FC0000028
:100050009DC000009BC0000099C00000C9C0000006
:1000600095C0000093C0000091C000008FC0000048
:100070008DC000008BC0000089C0000087C0000058
:1000800085C0000083C0000081C000007FC0000068
:100090007DC000007BC000001201100100000008BC
:1000A000EB03482001000102000109026500020182
:1000B00000C0320904000000010100000924010011
:1000C00001090001010904010002010300000724E5
:1000D000010001410006240201010006240202027F
:1000E00000092403010301020100092403020401A1
:1000F000010100090502024000050000052501017B
:1001000001090581024000050000052501010304E5
:100110000309041C034E006500610074006F002099
:100120000054006F0072007000650064006F0000F2
:10013000002203560069007300750061006C002006
:10014000004D006500740072006F006E006F006D5E
:1001500000650000000011241FBECFEFD2E0DEBF1B
:10016000CDBF11E0A0E0B1E0ECEEFEE002C00590F2
:100170000D92A030B107D9F711E0A0E0B1E001C0C5
:100180001D92AD31B107E1F7FED1AEC639CF8BB1CB
:1001900080638F7D8BB908958BB180638F7E8BB91F
:1001A000089587FF0CC0843F51F0853F41F0893F9F
:1001B00031F08D3F21F0803F18F4807F089580E07A
:1001C0000895282F803889F0803979F0803B69F0D4
:1001D000803A59F0803D49F0803E39F080E090E06F
:1001E000203C29F481E090E0089581E090E00895BA
:1001F0001F920F920FB60F9211240F931F932F93FC
:100200003F934F935F936F937F938F939F93AF939E
:10021000BF93EF93FF9380911401843009F0E5C000
:100220001091CE0040910B01442309F07CC0109343
:100230000D0100910A01802FB4DFC3DF882349F04C
:1002400017FD07C000930D0110930E0181E080930C
:100250000B0110910D01812FA4DF482F813FB1F1D7
:10026000823F90F4803BA1F1813B38F4803981F1E9
:10027000803A71F1803879F52BC0803D39F1803EAC
:1002800039F1803C41F522C0883F79F0893F38F44C
:10029000833FE1F0833FE0F0863FE9F406C08A3F08
:1002A000D0F08D3F10F08E3FB0F08FE080930401CE
:1002B00010930501109206011092070181E08093CE
:1002C000080110920B01109209018FC082E001C059
:1002D00083E08093090150910B0160910901252F62
:1002E00030E0862F90E0019728173907C4F0429537
:1002F0004F70409304011093050180910E0180938B
:100300000601633029F480910F018093070102C038
:100310001092070110920B01109209011BC05F5F40
:1003200050930B0162C017FF19C01D3F28F41A3FFC
:1003300028F4183F99F402C01E3F80F0812F31DF6E
:1003400082958F708093040110930501109206012D
:100350001092070181E08093080147C0242F30E00C
:10036000F901E35FFE4F108300910901802F90E0B7
:10037000019728173907B4F110910D01812F11DF72
:10038000982F82958F7080930401109305018091BE
:100390000E0180930601033029F480910F018093B0
:1003A000070102C01092070110920B01109209017F
:1003B00081E080930801903B79F0913B38F49039CB
:1003C00059F0903A49F0903851F406C0903D21F030
:1003D000903E11F0903C19F410930A0106C010925F
:1003E0000A0103C04F5F40930B01FF91EF91BF9152
:1003F000AF919F918F917F916F915F914F913F91BD
:100400002F911F910F910F900FBE0F901F90189575
:10041000DF93CF9300D000D0CDB7DEB78091140129
:10042000843099F582E08093E9008091E80082FFB2
:100430002CC0CE01019664E070E040E050E0BBD1FA
:100440009A818091C80085FFFCCF9093CE009B815C
:100450008091C80085FFFCCF9093CE009C81809155
:10046000C80085FFFCCF9093CE005C9888E893E1AC
:1004700090930301809302018091F200882329F474
:100480008091E8008B778093E8000F900F900F9099
:100490000F90CF91DF91089580911401843041F540
:1004A00081E08093E9008091E80080FF21C0809185
:1004B00008018823E9F01092080184E091E064E0EB
:1004C00070E040E050E0C9D11092040110920501A3
:1004D00010920601109207018091E8008E778093B8
:1004E000E8005D9888E893E1909301018093000112
:1004F00008950F931F9381E061E842E300D2082F33
:1005000082E060E842E3FBD110E090E00823192389
:1005100000FF02C090E201C090E18BB19095806332
:1005200098239BB91F910F91089584B7877F84BF4B
:1005300028E10FB6F89420936000109260000FBE7F
:100540008FE190E09093CD008093CC0086E0809383
:10055000CA001092C800E9ECF0E02083539A5A9A3E
:1005600084E085BD108288E98083469A3E9AE1E660
:10057000F0E080E8808310828AB180638AB98BB111
:1005800080638BB980C2D1DF789478948091000128
:1005900090910101009731F00197909301018093B0
:1005A000000101C05D9A80910201909103010097C2
:1005B00031F00197909303018093020101C05C9A8E
:1005C00027DF6ADF7CD4E2CFDA01923049F0933042
:1005D00061F09130F9F4E8E9F0E022E130E01EC08A
:1005E000EAEAF0E025E630E019C0813049F08130D8
:1005F00018F0823079F408C0EFE0F1E0849107C090
:10060000E3E1F1E0849103C0E1E3F1E08491282F7C
:1006100030E004C0E0E0F0E020E030E0ED93FC9357
:10062000C90108959C0140911B0150911C0146177E
:10063000570718F4F90190E03DC06115710511F0FC
:10064000AB01F8CF8091E8008E778093E80040E01E
:1006500050E0F0CF80911401882309F441C0853027
:1006600009F440C08091E80083FD3EC08091E8001D
:1006700082FD30C08091E80080FF1CC08091F200B4
:10068000282F30E007C081918093F1004150504005
:100690002F5F3F4F4115510519F02830310598F370
:1006A00090E02830310509F491E08091E8008E77E0
:1006B0008093E8004115510569F6992359F60AC05F
:1006C00080911401882361F0853061F08091E80009
:1006D00083FD0AC08091E80082FFF2CF80E0089598
:1006E00082E0089583E0089581E008959C0140919F
:1006F0001B0150911C014617570718F4F90190E0AF
:100700003EC06115710511F0AB01F8CF8091E80092
:100710008E778093E80040E050E0F0CF80911401A4
:10072000882309F442C0853009F441C08091E80073
:1007300083FD3FC08091E80082FD31C08091E800D8
:1007400080FF1DC08091F200282F30E008C0849106
:100750008093F1003196415050402F5F3F4F41153B
:10076000510519F02830310590F390E0283031051B
:1007700009F491E08091E8008E778093E8004115BC
:10078000510561F6992351F60AC08091140188231E
:1007900061F0853061F08091E80083FD0AC08091AE
:1007A000E80082FFF2CF80E0089582E0089583E0C0
:1007B000089581E00895BF92CF92DF92EF92FF9269
:1007C0000F931F93CF93DF93182F092F7B016A019B
:1007D000EFD0B82E8823B1F5812F902F9C01E9012D
:1007E000C114D10439F0F60180819181E81AF90A27
:1007F000C80FD91F00E010E022C08091E80085FDFD
:1008000016C08091E8008B778093E80058D3C1141C
:10081000D10449F0F60180819181800F911F91836D
:10082000808385E010C0C4D0882349F00CC080913B
:10083000F10089930894E108F1080F5F1F4FE1145C
:10084000F104D9F68B2DDF91CF911F910F91FF907D
:10085000EF90DF90CF90BF900895BF92CF92DF923C
:10086000EF92FF920F931F93CF93DF93182F092FCF
:100870007B016A019DD0B82E8823B1F5812F902F7E
:100880009C01E901C114D10439F0F6018081918104
:10089000E81AF90AC80FD91F00E010E022C08091C1
:1008A000E80085FD16C08091E8008E778093E8000F
:1008B00006D3C114D10449F0F60180819181800FE3
:1008C000911F9183808385E010C072D0882349F006
:1008D0000CC089918093F1000894E108F1080F5F42
:1008E0001F4FE114F104D9F68B2DDF91CF911F91A9
:1008F0000F91FF90EF90DF90CF90BF900895382F29
:10090000282F2EC0822F8F708093E900231721F4A7
:10091000762F942F50E006C07091EC009091ED007E
:100920005091F00091FF1BC08091EB008E7F80936F
:10093000EB008091ED008D7F8093ED008091EB00C6
:1009400081608093EB007093EC009093ED005093E6
:10095000F0008091EE0087FD02C080E008952F5FD7
:10096000253080F23F703093E90081E00895809156
:10097000150188239CF404C0809114018823B9F0E8
:100980008091E80082FFF8CF8091E8008B77809318
:10099000E800089580911401882349F08091E800CF
:1009A00080FFF8CF8091E8008E778093E80008956B
:1009B0004091E4005091E50024E68091EC0080FF36
:1009C00024C08091E80080FD1EC08091140188231E
:1009D00011F482E00895853011F483E00895809148
:1009E000EB0085FF02C081E008958091E4009091C2
:1009F000E5008417950709F3222311F484E0089594
:100A00002150AC01DACF80E008958091E80082FFA8
:100A1000DCCFF9CF41D043D08091D8008F7780933D
:100A2000D8008091D80080688093D8008091D80049
:100A30008F7D8093D80084E089BD86E089BD09B4AC
:100A400000FEFDCF109214011092100110921201BD
:100A50001092110180E060E042E051DF8091E100FE
:100A60008E7F8093E1008091E20081608093E200BC
:100A70008091E20088608093E2008091E0008E7FA8
:100A80008093E0000895E3E6F0E080818E7F80832C
:100A900081E080931301BECF1092E200089510927E
:100AA000E10008951F920F920FB60F9211242F9319
:100AB0003F934F935F936F937F938F939F93AF93E6
:100AC000BF93EF93FF938091E10082FF0AC0809172
:100AD000E20082FF06C08091E1008B7F8093E100FD
:100AE000EDD18091E10080FF17C08091E20080FF8E
:100AF00013C08091E2008E7F8093E2008091E2003B
:100B000080618093E2008091D80080628093D80059
:100B100019BC1092140140DB8091E10084FF2FC0CA
:100B20008091E20084FF2BC084E089BD86E089BD0E
:100B300009B400FEFDCF8091D8008F7D8093D8004E
:100B40008091E1008F7E8093E1008091E2008F7EB2
:100B50008093E2008091E20081608093E2008091C6
:100B60001001882311F084E007C08091E30087FD25
:100B700002C081E001C083E08093140108DB809112
:100B8000E10083FF22C08091E20083FF1EC08091BC
:100B9000E100877F8093E10082E08093140110924E
:100BA00010018091E1008E7F8093E1008091E2004E
:100BB0008E7F8093E2008091E20080618093E2006A
:100BC00080E060E042E09BDE79D1FF91EF91BF9140
:100BD000AF919F918F917F916F915F914F913F91D5
:100BE0002F910F900FBE0F901F9018951F93DF93BA
:100BF000CF93CDB7DEB7AC970FB6F894DEBF0FBE7C
:100C0000CDBFE5E1F1E08091F100819321E0ED318C
:100C1000F207C9F753D18091E80083FF37C1809173
:100C2000150130911601353009F487C0363040F493
:100C30003130C9F1313070F0333009F027C133C0A1
:100C4000383009F4F5C0393009F404C1363009F000
:100C50001DC196C0803821F0823809F017C108C044
:100C60009091110180911201882399F0926011C036
:100C7000809119018F708093E9008091EB0090E0E2
:100C800025E0969587952A95E1F7982F9170109217
:100C9000E9008091E800877F8093E8009093F1005D
:100CA0001092F100D0C0882319F0823009F0EEC014
:100CB00090E08F719070009721F0029709F0E6C0E4
:100CC0000CC080911701813009F0E0C01092120130
:100CD000333069F5809312012AC08091170188236F
:100CE00031F5209119012F7009F4D0C02093E9004B
:100CF0008091EB0080FF1BC0333021F48091EB002A
:100D0000806213C08091EB0080618093EB0081E0F2
:100D100090E002C0880F991F2A95E2F78093EA00BD
:100D20001092EA008091EB0088608093EB001092B3
:100D3000E9008091E800877F89C0882309F0A6C078
:100D4000109117011F778091E3008078812B8093A9
:100D5000E3008091E800877F8093E80008DE8091BF
:100D6000E80080FFFCCF8091E30080688093E3007F
:100D7000112311F482E001C083E08093140186C046
:100D80008058823008F082C080911701909118013C
:100D900023E08C3D920709F033C083E08C838AE224
:100DA0008B837FB7F894DE0115966EE040E050E04B
:100DB00011E2E62FF0E010935700849140FF03C04A
:100DC00082958F706F5F8F70282F30E08A3018F017
:100DD000C901C79602C0C901C0968D939D934F5F0C
:100DE0005F4F4431510529F77FBF8091E800877F2D
:100DF0008093E800CE0103966AE270E013DC12C033
:100E000060911901AE014F5F5F4FDEDBBC010097BF
:100E100009F43CC08091E800877F8093E8008981D5
:100E20009A8164DC8091E8008B778093E8002EC083
:100E3000803861F58091E800877F8093E800809199
:100E400010018093F1008091E8008E778093E80094
:100E50008EDD1CC08823D1F4909117019230B0F43C
:100E60008091E800877F8093E800909310017FDDF8
:100E700080911001882331F48091E30087FD02C046
:100E800081E001C084E08093140133DB8091E800AD
:100E900083FF0AC08091E800877F8093E8008091FB
:100EA000EB0080628093EB00AC960FB6F894DEBF47
:100EB0000FBECDBFCF91DF911F91089508951F936D
:100EC00080911401882371F01091E9008091EC0069
:100ED0001092E9008091E80083FF01C087DE1F7057
:0C0EE0001093E9001F910895F894FFCFD3
:00000001FF
